{
  "contractName": "UniswapExchangeWrapper",
  "abi": [
    {
      "inputs": [
        {
          "internalType": "address",
          "name": "factory_",
          "type": "address"
        },
        {
          "internalType": "contract IUniswapV2Router02",
          "name": "router_",
          "type": "address"
        }
      ],
      "stateMutability": "nonpayable",
      "type": "constructor"
    },
    {
      "inputs": [],
      "name": "factory",
      "outputs": [
        {
          "internalType": "address",
          "name": "",
          "type": "address"
        }
      ],
      "stateMutability": "view",
      "type": "function"
    },
    {
      "inputs": [],
      "name": "router",
      "outputs": [
        {
          "internalType": "contract IUniswapV2Router02",
          "name": "",
          "type": "address"
        }
      ],
      "stateMutability": "view",
      "type": "function"
    },
    {
      "inputs": [
        {
          "internalType": "address",
          "name": "",
          "type": "address"
        },
        {
          "internalType": "address",
          "name": "receiver",
          "type": "address"
        },
        {
          "internalType": "address",
          "name": "makerToken",
          "type": "address"
        },
        {
          "internalType": "address",
          "name": "takerToken",
          "type": "address"
        },
        {
          "internalType": "uint256",
          "name": "requestedFillAmount",
          "type": "uint256"
        },
        {
          "internalType": "bytes",
          "name": "",
          "type": "bytes"
        }
      ],
      "name": "exchange",
      "outputs": [
        {
          "internalType": "uint256",
          "name": "",
          "type": "uint256"
        }
      ],
      "stateMutability": "nonpayable",
      "type": "function"
    },
    {
      "inputs": [
        {
          "internalType": "address",
          "name": "",
          "type": "address"
        },
        {
          "internalType": "address",
          "name": "",
          "type": "address"
        },
        {
          "internalType": "uint256",
          "name": "",
          "type": "uint256"
        },
        {
          "internalType": "bytes",
          "name": "",
          "type": "bytes"
        }
      ],
      "name": "getExchangeCost",
      "outputs": [
        {
          "internalType": "uint256",
          "name": "",
          "type": "uint256"
        }
      ],
      "stateMutability": "view",
      "type": "function"
    }
  ],
  "bytecode": "0x60c060405234801561001057600080fd5b50604051610a3f380380610a3f8339818101604052604081101561003357600080fd5b5080516020909101516001600160601b0319606092831b811660a052911b1660805260805160601c60a05160601c6109b76100886000398061049b52508061021f52806102c252806104bf52506109b76000f3fe608060405234801561001057600080fd5b506004361061004c5760003560e01c80633a8fdd7d146100515780637d98ebac146100f3578063c45a015514610190578063f887ea40146101b4575b600080fd5b6100e16004803603608081101561006757600080fd5b6001600160a01b038235811692602081013590911691604082013591908101906080810160608201356401000000008111156100a257600080fd5b8201836020820111156100b457600080fd5b803590602001918460018302840111640100000000831117156100d657600080fd5b5090925090506101bc565b60408051918252519081900360200190f35b6100e1600480360360c081101561010957600080fd5b6001600160a01b038235811692602081013582169260408201358316926060830135169160808101359181019060c0810160a082013564010000000081111561015157600080fd5b82018360208201111561016357600080fd5b8035906020019184600183028401116401000000008311171561018557600080fd5b50909250905061020b565b610198610499565b604080516001600160a01b039092168252519081900360200190f35b6101986104bd565b6040805162461bcd60e51b815260206004820152601f60248201527f67657445786368616e6765436f7374206e6f7420696d706c656d656e746564006044820152905160009181900360640190fd5b6000610219853330876104e1565b610244857f00000000000000000000000000000000000000000000000000000000000000008661063e565b6040805160028082526060808301845292602083019080368337019050509050858160008151811061027257fe5b60200260200101906001600160a01b031690816001600160a01b03168152505086816001815181106102a057fe5b60200260200101906001600160a01b031690816001600160a01b0316815250507f00000000000000000000000000000000000000000000000000000000000000006001600160a01b03166338ed1739866000848c426040518663ffffffff1660e01b81526004018086815260200185815260200180602001846001600160a01b03168152602001838152602001828103825285818151815260200191508051906020019060200280838360005b8381101561036557818101518382015260200161034d565b505050509050019650505050505050600060405180830381600087803b15801561038e57600080fd5b505af11580156103a2573d6000803e3d6000fd5b505050506040513d6000823e601f3d908101601f1916820160405260208110156103cb57600080fd5b81019080805160405193929190846401000000008211156103eb57600080fd5b90830190602082018581111561040057600080fd5b825186602082028301116401000000008211171561041d57600080fd5b82525081516020918201928201910280838360005b8381101561044a578181015183820152602001610432565b5050505090500160405250505050600061047630896001600160a01b031661079290919063ffffffff16565b905061048c6001600160a01b0389168a83610814565b9998505050505050505050565b7f000000000000000000000000000000000000000000000000000000000000000081565b7f000000000000000000000000000000000000000000000000000000000000000081565b604080516001600160a01b0385811660248301528481166044830152606480830185905283518084039091018152608490920183526020820180516001600160e01b03166323b872dd60e01b17815292518251600094606094938a169392918291908083835b602083106105665780518252601f199092019160209182019101610547565b6001836020036101000a0380198251168184511680821785525050505050509050019150506000604051808303816000865af19150503d80600081146105c8576040519150601f19603f3d011682016040523d82523d6000602084013e6105cd565b606091505b50915091508180156105fb5750805115806105fb57508080602001905160208110156105f857600080fd5b50515b6106365760405162461bcd60e51b81526004018080602001828103825260318152602001806109266031913960400191505060405180910390fd5b505050505050565b604080516001600160a01b038481166024830152604480830185905283518084039091018152606490920183526020820180516001600160e01b031663095ea7b360e01b178152925182516000946060949389169392918291908083835b602083106106bb5780518252601f19909201916020918201910161069c565b6001836020036101000a0380198251168184511680821785525050505050509050019150506000604051808303816000865af19150503d806000811461071d576040519150601f19603f3d011682016040523d82523d6000602084013e610722565b606091505b5091509150818015610750575080511580610750575080806020019051602081101561074d57600080fd5b50515b61078b5760405162461bcd60e51b815260040180806020018281038252602b815260200180610957602b913960400191505060405180910390fd5b5050505050565b6000826001600160a01b03166370a08231836040518263ffffffff1660e01b815260040180826001600160a01b0316815260200191505060206040518083038186803b1580156107e157600080fd5b505afa1580156107f5573d6000803e3d6000fd5b505050506040513d602081101561080b57600080fd5b50519392505050565b826001600160a01b031663095ea7b383836040518363ffffffff1660e01b815260040180836001600160a01b0316815260200182815260200192505050600060405180830381600087803b15801561086b57600080fd5b505af115801561087f573d6000803e3d6000fd5b5050505061088b6108cb565b6108c65760405162461bcd60e51b81526004018080602001828103825260268152602001806109006026913960400191505060405180910390fd5b505050565b6000803d80156108e257602081146108eb576108f7565b600191506108f7565b60206000803e60005191505b50151590509056fe546f6b656e496e74657261637423617070726f76653a20417070726f76616c206661696c65645472616e7366657248656c7065723a3a7472616e7366657246726f6d3a207472616e7366657246726f6d206661696c65645472616e7366657248656c7065723a3a73616665417070726f76653a20617070726f7665206661696c6564a264697066735822122095d9e10549f2ccbd3071818f3a63c0369659fba9a5108f957f6b45e9b854f5f864736f6c634300060c0033",
  "immutableReferences": {
    "23": [
      {
        "length": 32,
        "start": 543
      },
      {
        "length": 32,
        "start": 706
      },
      {
        "length": 32,
        "start": 1215
      }
    ],
    "25": [
      {
        "length": 32,
        "start": 1179
      }
    ]
  },
  "source": "pragma solidity ^0.6.0;\r\n\r\nimport '@uniswap/v2-core/contracts/interfaces/IUniswapV2Pair.sol';\r\nimport '@uniswap/lib/contracts/libraries/Babylonian.sol';\r\nimport '@uniswap/lib/contracts/libraries/TransferHelper.sol';\r\n\r\nimport '../lib/UniswapV2LiquidityMathLibrary.sol';\r\nimport '../interfaces/IERC20.sol';\r\nimport '../interfaces/IUniswapV2Router02.sol';\r\nimport '../lib/SafeMath.sol';\r\nimport '../lib/UniswapV2Library.sol';\r\n\r\nimport { ExchangeWrapper } from \"../interfaces/ExchangeWrapper.sol\";\r\nimport { TokenInteract } from \"../lib/TokenInteract.sol\";\r\n\r\ncontract UniswapExchangeWrapper is\r\n    ExchangeWrapper\r\n{\r\n    using SafeMath for uint256;\r\n    using TokenInteract for address;\r\n\r\n    IUniswapV2Router02 public immutable router;\r\n    address public immutable factory;\r\n\r\n    constructor(address factory_, IUniswapV2Router02 router_) public {\r\n        factory = factory_;\r\n        router = router_;\r\n    }\r\n\r\n\r\n    struct Trade {\r\n        int128 fromId;\r\n        int128 toId;\r\n        uint256 fromAmount;\r\n    }\r\n\r\n    // ============ Public Functions ============\r\n\r\n    function exchange(\r\n        address /* tradeOriginator */,\r\n        address receiver,\r\n        address makerToken,\r\n        address takerToken,\r\n        uint256 requestedFillAmount,\r\n        bytes calldata /* orderData */\r\n    )\r\n        override\r\n        external\r\n        returns (uint256)\r\n    {\r\n        TransferHelper.safeTransferFrom(takerToken, msg.sender, address(this), requestedFillAmount);\r\n        TransferHelper.safeApprove(takerToken, address(router), requestedFillAmount);\r\n\r\n        address[] memory path = new address[](2);\r\n        path[0] = takerToken;\r\n        path[1] = makerToken;\r\n\r\n        router.swapExactTokensForTokens(\r\n            requestedFillAmount,\r\n            0, // amountOutMin: we can skip computing this number because the math is tested\r\n            path,\r\n            receiver,\r\n            block.timestamp\r\n        );\r\n        // }\r\n\r\n        uint256 toAmount = makerToken.balanceOf(address(this));\r\n\r\n        // require(\r\n        //      toAmount >= minToAmount,\r\n        //     \"minToAmount not satisfied\"\r\n        // );\r\n        // require(\r\n        //      totalFromAmount == requestedFillAmount,\r\n        //     \"totalFromAmount does not equal requestedFillAmount\"\r\n        // );\r\n\r\n        makerToken.approve(receiver, toAmount);\r\n\r\n        return toAmount;\r\n    }\r\n\r\n    function getExchangeCost(\r\n        address /* makerToken */,\r\n        address /* takerToken */,\r\n        uint256 /* desiredMakerToken */,\r\n        bytes calldata /* orderData */\r\n    )\r\n        override\r\n        external\r\n        view\r\n        returns (uint256)\r\n    {\r\n        revert(\"getExchangeCost not implemented\");\r\n    }\r\n}\r\n",
  "sourcePath": "E:/Warcraft/t/CalDex/exchangewrapper/contracts/exchange-wrapper/UniSwapExchangeWrapper.sol",
  "compiler": {
    "name": "solc",
    "version": "0.6.12+commit.27d51765.Emscripten.clang"
  },
  "schemaVersion": "3.3.4",
  "updatedAt": "2021-04-13T14:17:16.971Z",
  "devdoc": {
    "kind": "dev",
    "methods": {},
    "version": 1
  },
  "userdoc": {
    "kind": "user",
    "methods": {},
    "version": 1
  }
}