{
  "contractName": "YfdDaiExchangeWrapper",
  "abi": [
    {
      "inputs": [
        {
          "internalType": "address",
          "name": "migrationContract",
          "type": "address"
        },
        {
          "internalType": "address",
          "name": "yfd",
          "type": "address"
        },
        {
          "internalType": "address",
          "name": "dai",
          "type": "address"
        }
      ],
      "stateMutability": "nonpayable",
      "type": "constructor"
    },
    {
      "inputs": [],
      "name": "DAI",
      "outputs": [
        {
          "internalType": "address",
          "name": "",
          "type": "address"
        }
      ],
      "stateMutability": "view",
      "type": "function"
    },
    {
      "inputs": [],
      "name": "MIGRATION_CONTRACT",
      "outputs": [
        {
          "internalType": "address",
          "name": "",
          "type": "address"
        }
      ],
      "stateMutability": "view",
      "type": "function"
    },
    {
      "inputs": [],
      "name": "YFD",
      "outputs": [
        {
          "internalType": "address",
          "name": "",
          "type": "address"
        }
      ],
      "stateMutability": "view",
      "type": "function"
    },
    {
      "inputs": [
        {
          "internalType": "address",
          "name": "",
          "type": "address"
        },
        {
          "internalType": "address",
          "name": "receiver",
          "type": "address"
        },
        {
          "internalType": "address",
          "name": "makerToken",
          "type": "address"
        },
        {
          "internalType": "address",
          "name": "takerToken",
          "type": "address"
        },
        {
          "internalType": "uint256",
          "name": "requestedFillAmount",
          "type": "uint256"
        },
        {
          "internalType": "bytes",
          "name": "",
          "type": "bytes"
        }
      ],
      "name": "exchange",
      "outputs": [
        {
          "internalType": "uint256",
          "name": "",
          "type": "uint256"
        }
      ],
      "stateMutability": "nonpayable",
      "type": "function"
    },
    {
      "inputs": [
        {
          "internalType": "address",
          "name": "",
          "type": "address"
        },
        {
          "internalType": "address",
          "name": "",
          "type": "address"
        },
        {
          "internalType": "uint256",
          "name": "desiredMakerToken",
          "type": "uint256"
        },
        {
          "internalType": "bytes",
          "name": "",
          "type": "bytes"
        }
      ],
      "name": "getExchangeCost",
      "outputs": [
        {
          "internalType": "uint256",
          "name": "",
          "type": "uint256"
        }
      ],
      "stateMutability": "view",
      "type": "function"
    }
  ],
  "bytecode": "0x608060405234801561001057600080fd5b5060405161099a38038061099a83398101604081905261002f91610180565b600080546001600160a01b03199081166001600160a01b03868116919091179092556001805482168584169081179091556002805490921692841692909217905561008890846000196100b4602090811b6102ab17901c565b6100ac83600019836001600160a01b03166100b460201b6102ab179092919060201c565b505050610243565b60405163095ea7b360e01b81526001600160a01b0384169063095ea7b3906100e290859085906004016101cc565b600060405180830381600087803b1580156100fc57600080fd5b505af1158015610110573d6000803e3d6000fd5b5050505061012261014c60201b60201c565b6101475760405162461bcd60e51b815260040161013e906101e5565b60405180910390fd5b505050565b6000803d8015610163576020811461016c57610178565b60019150610178565b60206000803e60005191505b501515905090565b600080600060608486031215610194578283fd5b835161019f8161022b565b60208501519093506101b08161022b565b60408501519092506101c18161022b565b809150509250925092565b6001600160a01b03929092168252602082015260400190565b60208082526026908201527f546f6b656e496e74657261637423617070726f76653a20417070726f76616c2060408201526519985a5b195960d21b606082015260800190565b6001600160a01b038116811461024057600080fd5b50565b610748806102526000396000f3fe608060405234801561001057600080fd5b50600436106100575760003560e01c80633a8fdd7d1461005c5780637d98ebac14610085578063a184a00614610098578063af40b954146100ad578063e0bab4c4146100b5575b600080fd5b61006f61006a3660046105a7565b6100bd565b60405161007c9190610709565b60405180910390f35b61006f610093366004610515565b6100c6565b6100a061027e565b60405161007c919061062e565b6100a061028d565b6100a061029c565b50909392505050565b6001546002546000916001600160a01b039081169181169083908816831480156101015750816001600160a01b0316896001600160a01b0316145b806101395750816001600160a01b0316886001600160a01b03161480156101395750826001600160a01b0316896001600160a01b0316145b9050806101615760405162461bcd60e51b8152600401610158906106bb565b60405180910390fd5b6000546001600160a01b039081169089811690851614156101df5760405163f15ae22760e01b81526001600160a01b0382169063f15ae227906101a8908b90600401610709565b600060405180830381600087803b1580156101c257600080fd5b505af11580156101d6573d6000803e3d6000fd5b5050505061023e565b60405163329d107560e01b81526001600160a01b0382169063329d10759061020b908b90600401610709565b600060405180830381600087803b15801561022557600080fd5b505af1158015610239573d6000803e3d6000fd5b505050505b876102526001600160a01b038c1630610334565b101561025a57fe5b61026e6001600160a01b038b168c8a6103bc565b50959a9950505050505050505050565b6001546001600160a01b031681565b6000546001600160a01b031681565b6002546001600160a01b031681565b60405163095ea7b360e01b81526001600160a01b0384169063095ea7b3906102d9908590859060040161065c565b600060405180830381600087803b1580156102f357600080fd5b505af1158015610307573d6000803e3d6000fd5b505050506103136103f4565b61032f5760405162461bcd60e51b815260040161015890610675565b505050565b6040516370a0823160e01b81526000906001600160a01b038416906370a082319061036390859060040161062e565b60206040518083038186803b15801561037b57600080fd5b505afa15801561038f573d6000803e3d6000fd5b505050506040513d601f19601f820116820180604052508101906103b39190610616565b90505b92915050565b806103d16001600160a01b0385163085610428565b101561032f5761032f826103e36104b1565b6001600160a01b03861691906102ab565b6000803d801561040b576020811461041457610420565b60019150610420565b60206000803e60005191505b501515905090565b604051636eb1769f60e11b81526000906001600160a01b0385169063dd62ed3e906104599086908690600401610642565b60206040518083038186803b15801561047157600080fd5b505afa158015610485573d6000803e3d6000fd5b505050506040513d601f19601f820116820180604052508101906104a99190610616565b949350505050565b60001990565b80356001600160a01b03811681146103b657600080fd5b60008083601f8401126104df578182fd5b50813567ffffffffffffffff8111156104f6578182fd5b60208301915083602082850101111561050e57600080fd5b9250929050565b600080600080600080600060c0888a03121561052f578283fd5b61053989896104b7565b96506105488960208a016104b7565b95506105578960408a016104b7565b94506105668960608a016104b7565b93506080880135925060a088013567ffffffffffffffff811115610588578283fd5b6105948a828b016104ce565b989b979a50959850939692959293505050565b6000806000806000608086880312156105be578081fd5b6105c887876104b7565b94506105d787602088016104b7565b935060408601359250606086013567ffffffffffffffff8111156105f9578182fd5b610605888289016104ce565b969995985093965092949392505050565b600060208284031215610627578081fd5b5051919050565b6001600160a01b0391909116815260200190565b6001600160a01b0392831681529116602082015260400190565b6001600160a01b03929092168252602082015260400190565b60208082526026908201527f546f6b656e496e74657261637423617070726f76653a20417070726f76616c2060408201526519985a5b195960d21b606082015260800190565b6020808252602e908201527f59666444616945786368616e6765577261707065722365786368616e67653a2060408201526d496e76616c696420746f6b656e7360901b606082015260800190565b9081526020019056fea264697066735822122050a5c2758ea959c32a9d34a0cca4e3d938adfd85dd38690c32a03955f7226c6164736f6c634300060c0033",
  "immutableReferences": {},
  "source": "// SPDX-License-Identifier: MIT\r\npragma solidity ^0.6.0;\r\npragma experimental ABIEncoderV2;\r\n\r\nimport { IScdMcdMigration } from \"../external/Maker/Other/IScdMcdMigration.sol\";\r\nimport { ExchangeWrapper } from \"../interfaces/ExchangeWrapper.sol\";\r\nimport { AdvancedTokenInteract } from \"../lib/AdvancedTokenInteract.sol\";\r\nimport { TokenInteract } from \"../lib/TokenInteract.sol\";\r\n\r\ncontract YfdDaiExchangeWrapper is\r\n    ExchangeWrapper\r\n{\r\n    using AdvancedTokenInteract for address;\r\n    using TokenInteract for address;\r\n\r\n    // ============ Storage ============\r\n\r\n    address public MIGRATION_CONTRACT;\r\n\r\n    address public YFD;\r\n\r\n    address public DAI;\r\n\r\n    // ============ Constructor ============\r\n\r\n    constructor(\r\n        address migrationContract,\r\n        address yfd,\r\n        address dai\r\n    )\r\n        public\r\n    {\r\n        MIGRATION_CONTRACT = migrationContract;\r\n        YFD = yfd;\r\n        DAI = dai;\r\n\r\n        yfd.approve(migrationContract, uint256(-1));\r\n        dai.approve(migrationContract, uint256(-1));\r\n    }\r\n\r\n    // ============ Public Functions ============\r\n\r\n    function exchange(\r\n        address /* tradeOriginator */,\r\n        address receiver,\r\n        address makerToken,\r\n        address takerToken,\r\n        uint256 requestedFillAmount,\r\n        bytes calldata /* orderData */\r\n    )\r\n        external\r\n        override\r\n        returns (uint256)\r\n    {\r\n        address yfd = YFD;\r\n        address dai = DAI;\r\n\r\n        bool tokensAreValid =\r\n            (takerToken == yfd && makerToken == dai)\r\n            || (takerToken == dai && makerToken == yfd);\r\n\r\n        require(\r\n            tokensAreValid,\r\n            \"YfdDaiExchangeWrapper#exchange: Invalid tokens\"\r\n        );\r\n\r\n        IScdMcdMigration migration = IScdMcdMigration(MIGRATION_CONTRACT);\r\n\r\n        if (takerToken == yfd) {\r\n            migration.swapYfdToDai(requestedFillAmount);\r\n        } else {\r\n            migration.swapDaiToYfd(requestedFillAmount);\r\n        }\r\n\r\n        // ensure swap occurred properly\r\n        assert(makerToken.balanceOf(address(this)) >= requestedFillAmount);\r\n\r\n        // set allowance for the receiver\r\n        makerToken.ensureAllowance(receiver, requestedFillAmount);\r\n\r\n        return requestedFillAmount;\r\n    }\r\n\r\n    function getExchangeCost(\r\n        address /* makerToken */,\r\n        address /* takerToken */,\r\n        uint256 desiredMakerToken,\r\n        bytes calldata /* orderData */\r\n    )\r\n        external\r\n        override\r\n        view\r\n        returns (uint256)\r\n    {\r\n        return desiredMakerToken;\r\n    }\r\n}\r\n",
  "sourcePath": "E:/Warcraft/t/CalDex/exchangewrapper/contracts/exchange-wrapper/YfdDaiWrapper.sol",
  "compiler": {
    "name": "solc",
    "version": "0.6.12+commit.27d51765.Emscripten.clang"
  },
  "schemaVersion": "3.3.4",
  "updatedAt": "2021-04-13T11:11:34.976Z",
  "devdoc": {
    "kind": "dev",
    "methods": {},
    "version": 1
  },
  "userdoc": {
    "kind": "user",
    "methods": {},
    "version": 1
  }
}